{
  "contractName": "HR_management",
  "abi": [
    {
      "anonymous": false,
      "inputs": [
        {
          "indexed": false,
          "internalType": "uint32",
          "name": "employeeId",
          "type": "uint32"
        }
      ],
      "name": "TransferOwnership",
      "type": "event"
    },
    {
      "constant": true,
      "inputs": [
        {
          "internalType": "uint32",
          "name": "",
          "type": "uint32"
        },
        {
          "internalType": "uint256",
          "name": "",
          "type": "uint256"
        }
      ],
      "name": "employeeTrack",
      "outputs": [
        {
          "internalType": "uint32",
          "name": "",
          "type": "uint32"
        }
      ],
      "payable": false,
      "stateMutability": "view",
      "type": "function"
    },
    {
      "constant": true,
      "inputs": [],
      "name": "employee_id",
      "outputs": [
        {
          "internalType": "uint32",
          "name": "",
          "type": "uint32"
        }
      ],
      "payable": false,
      "stateMutability": "view",
      "type": "function"
    },
    {
      "constant": true,
      "inputs": [
        {
          "internalType": "uint32",
          "name": "",
          "type": "uint32"
        }
      ],
      "name": "employees",
      "outputs": [
        {
          "internalType": "string",
          "name": "employeeNumber",
          "type": "string"
        },
        {
          "internalType": "string",
          "name": "employeeName",
          "type": "string"
        },
        {
          "internalType": "string",
          "name": "employeeDesignation",
          "type": "string"
        },
        {
          "internalType": "address",
          "name": "employeeOwner",
          "type": "address"
        },
        {
          "internalType": "uint32",
          "name": "currentSalary",
          "type": "uint32"
        },
        {
          "internalType": "uint32",
          "name": "employeeScore",
          "type": "uint32"
        },
        {
          "internalType": "uint32",
          "name": "joiningTimeStamp",
          "type": "uint32"
        },
        {
          "internalType": "string",
          "name": "emp_feedback_tech1",
          "type": "string"
        },
        {
          "internalType": "string",
          "name": "emp_feedback_tech2",
          "type": "string"
        }
      ],
      "payable": false,
      "stateMutability": "view",
      "type": "function"
    },
    {
      "constant": true,
      "inputs": [],
      "name": "owner_id",
      "outputs": [
        {
          "internalType": "uint32",
          "name": "",
          "type": "uint32"
        }
      ],
      "payable": false,
      "stateMutability": "view",
      "type": "function"
    },
    {
      "constant": true,
      "inputs": [
        {
          "internalType": "uint32",
          "name": "",
          "type": "uint32"
        }
      ],
      "name": "ownerships",
      "outputs": [
        {
          "internalType": "uint32",
          "name": "employeeId",
          "type": "uint32"
        },
        {
          "internalType": "uint32",
          "name": "ownerId",
          "type": "uint32"
        },
        {
          "internalType": "uint32",
          "name": "trxTimeStamp",
          "type": "uint32"
        },
        {
          "internalType": "address",
          "name": "employeeOwner",
          "type": "address"
        }
      ],
      "payable": false,
      "stateMutability": "view",
      "type": "function"
    },
    {
      "constant": true,
      "inputs": [],
      "name": "participant_id",
      "outputs": [
        {
          "internalType": "uint32",
          "name": "",
          "type": "uint32"
        }
      ],
      "payable": false,
      "stateMutability": "view",
      "type": "function"
    },
    {
      "constant": true,
      "inputs": [
        {
          "internalType": "uint32",
          "name": "",
          "type": "uint32"
        }
      ],
      "name": "participants",
      "outputs": [
        {
          "internalType": "string",
          "name": "userName",
          "type": "string"
        },
        {
          "internalType": "string",
          "name": "password",
          "type": "string"
        },
        {
          "internalType": "string",
          "name": "participantType",
          "type": "string"
        },
        {
          "internalType": "address",
          "name": "participantAddress",
          "type": "address"
        }
      ],
      "payable": false,
      "stateMutability": "view",
      "type": "function"
    },
    {
      "constant": false,
      "inputs": [
        {
          "internalType": "string",
          "name": "_name",
          "type": "string"
        },
        {
          "internalType": "string",
          "name": "_pass",
          "type": "string"
        },
        {
          "internalType": "address",
          "name": "_pAdd",
          "type": "address"
        },
        {
          "internalType": "string",
          "name": "_pType",
          "type": "string"
        }
      ],
      "name": "addParticipant",
      "outputs": [
        {
          "internalType": "uint32",
          "name": "",
          "type": "uint32"
        }
      ],
      "payable": false,
      "stateMutability": "nonpayable",
      "type": "function"
    },
    {
      "constant": true,
      "inputs": [
        {
          "internalType": "uint32",
          "name": "_participant_id",
          "type": "uint32"
        }
      ],
      "name": "getParticipant",
      "outputs": [
        {
          "internalType": "string",
          "name": "",
          "type": "string"
        },
        {
          "internalType": "address",
          "name": "",
          "type": "address"
        },
        {
          "internalType": "string",
          "name": "",
          "type": "string"
        }
      ],
      "payable": false,
      "stateMutability": "view",
      "type": "function"
    },
    {
      "constant": false,
      "inputs": [
        {
          "internalType": "string",
          "name": "_employeeNumber",
          "type": "string"
        },
        {
          "internalType": "string",
          "name": "_employeeName",
          "type": "string"
        },
        {
          "internalType": "string",
          "name": "_employeeDesignation",
          "type": "string"
        },
        {
          "internalType": "uint32",
          "name": "_ownerId",
          "type": "uint32"
        },
        {
          "internalType": "uint32",
          "name": "_currentSalary",
          "type": "uint32"
        }
      ],
      "name": "addEmployee",
      "outputs": [
        {
          "internalType": "uint32",
          "name": "",
          "type": "uint32"
        }
      ],
      "payable": false,
      "stateMutability": "nonpayable",
      "type": "function"
    },
    {
      "constant": false,
      "inputs": [
        {
          "internalType": "uint32",
          "name": "_ownerId",
          "type": "uint32"
        },
        {
          "internalType": "uint32",
          "name": "_employeeId",
          "type": "uint32"
        },
        {
          "internalType": "uint32",
          "name": "_employeeScore",
          "type": "uint32"
        }
      ],
      "name": "updateEmpScore",
      "outputs": [],
      "payable": false,
      "stateMutability": "nonpayable",
      "type": "function"
    },
    {
      "constant": false,
      "inputs": [
        {
          "internalType": "uint32",
          "name": "_ownerId",
          "type": "uint32"
        },
        {
          "internalType": "uint32",
          "name": "_employeeId",
          "type": "uint32"
        },
        {
          "internalType": "string",
          "name": "_emp_feedback",
          "type": "string"
        }
      ],
      "name": "updateFeedback",
      "outputs": [],
      "payable": false,
      "stateMutability": "nonpayable",
      "type": "function"
    },
    {
      "constant": true,
      "inputs": [
        {
          "internalType": "uint32",
          "name": "_employeeId",
          "type": "uint32"
        }
      ],
      "name": "getEmployee",
      "outputs": [
        {
          "internalType": "string",
          "name": "",
          "type": "string"
        },
        {
          "internalType": "string",
          "name": "",
          "type": "string"
        },
        {
          "internalType": "string",
          "name": "",
          "type": "string"
        },
        {
          "internalType": "address",
          "name": "",
          "type": "address"
        },
        {
          "internalType": "uint32",
          "name": "",
          "type": "uint32"
        },
        {
          "internalType": "uint32",
          "name": "",
          "type": "uint32"
        },
        {
          "internalType": "uint32",
          "name": "",
          "type": "uint32"
        },
        {
          "internalType": "string",
          "name": "",
          "type": "string"
        },
        {
          "internalType": "string",
          "name": "",
          "type": "string"
        }
      ],
      "payable": false,
      "stateMutability": "view",
      "type": "function"
    },
    {
      "constant": false,
      "inputs": [
        {
          "internalType": "uint32",
          "name": "_user1Id",
          "type": "uint32"
        },
        {
          "internalType": "uint32",
          "name": "_user2Id",
          "type": "uint32"
        },
        {
          "internalType": "uint32",
          "name": "_empId",
          "type": "uint32"
        }
      ],
      "name": "newOwner",
      "outputs": [
        {
          "internalType": "bool",
          "name": "",
          "type": "bool"
        }
      ],
      "payable": false,
      "stateMutability": "nonpayable",
      "type": "function"
    },
    {
      "constant": true,
      "inputs": [
        {
          "internalType": "uint32",
          "name": "_empId",
          "type": "uint32"
        }
      ],
      "name": "getProvenance",
      "outputs": [
        {
          "internalType": "uint32[]",
          "name": "",
          "type": "uint32[]"
        }
      ],
      "payable": false,
      "stateMutability": "view",
      "type": "function"
    },
    {
      "constant": true,
      "inputs": [
        {
          "internalType": "uint32",
          "name": "_regId",
          "type": "uint32"
        }
      ],
      "name": "getOwnership",
      "outputs": [
        {
          "internalType": "uint32",
          "name": "",
          "type": "uint32"
        },
        {
          "internalType": "uint32",
          "name": "",
          "type": "uint32"
        },
        {
          "internalType": "address",
          "name": "",
          "type": "address"
        },
        {
          "internalType": "uint32",
          "name": "",
          "type": "uint32"
        }
      ],
      "payable": false,
      "stateMutability": "view",
      "type": "function"
    },
    {
      "constant": true,
      "inputs": [
        {
          "internalType": "uint32",
          "name": "_uid",
          "type": "uint32"
        },
        {
          "internalType": "string",
          "name": "_uname",
          "type": "string"
        },
        {
          "internalType": "string",
          "name": "_pass",
          "type": "string"
        },
        {
          "internalType": "string",
          "name": "_utype",
          "type": "string"
        }
      ],
      "name": "authenticateParticipant",
      "outputs": [
        {
          "internalType": "bool",
          "name": "",
          "type": "bool"
        }
      ],
      "payable": false,
      "stateMutability": "view",
      "type": "function"
    }
  ],
  "bytecode": "0x608060405260008060006101000a81548163ffffffff021916908363ffffffff16021790555060008060046101000a81548163ffffffff021916908363ffffffff16021790555060008060086101000a81548163ffffffff021916908363ffffffff16021790555034801561007357600080fd5b5061453e806100836000396000f3fe608060405234801561001057600080fd5b506004361061010b5760003560e01c80637d0a9ac9116100a2578063c856956511610071578063c85695651461107c578063df6d23f114611105578063ebf43a7e146111b2578063f7019fcb146113db578063fc2da910146114395761010b565b80637d0a9ac914610b2457806381e1561014610cdc5780638f5ebf7114610d89578063a4699f7114610db35761010b565b80633b26a65d116100de5780633b26a65d146102d557806347bb7c3914610421578063721b57431461064a578063780ab03a1461085b5761010b565b80630d414e7414610110578063249cdb3c146101eb5780632e9d52841461023f578063387dbcab146102ab575b600080fd5b6101e96004803603606081101561012657600080fd5b81019080803563ffffffff169060200190929190803563ffffffff1690602001909291908035906020019064010000000081111561016357600080fd5b82018360208201111561017557600080fd5b8035906020019184600183028401116401000000008311171561019757600080fd5b91908080601f016020809104026020016040519081016040528093929190818152602001838380828437600081840152601f19601f820116905080830192505050505050509192919290505050611463565b005b61023d6004803603606081101561020157600080fd5b81019080803563ffffffff169060200190929190803563ffffffff169060200190929190803563ffffffff169060200190929190505050611835565b005b6102916004803603606081101561025557600080fd5b81019080803563ffffffff169060200190929190803563ffffffff169060200190929190803563ffffffff169060200190929190505050611b16565b604051808215151515815260200191505060405180910390f35b6102b3612c17565b604051808263ffffffff1663ffffffff16815260200191505060405180910390f35b610307600480360360208110156102eb57600080fd5b81019080803563ffffffff169060200190929190505050612c2c565b60405180806020018473ffffffffffffffffffffffffffffffffffffffff1673ffffffffffffffffffffffffffffffffffffffff16815260200180602001838103835286818151815260200191508051906020019080838360005b8381101561037d578082015181840152602081019050610362565b50505050905090810190601f1680156103aa5780820380516001836020036101000a031916815260200191505b50838103825284818151815260200191508051906020019080838360005b838110156103e35780820151818401526020810190506103c8565b50505050905090810190601f1680156104105780820380516001836020036101000a031916815260200191505b509550505050505060405180910390f35b610628600480360360a081101561043757600080fd5b810190808035906020019064010000000081111561045457600080fd5b82018360208201111561046657600080fd5b8035906020019184600183028401116401000000008311171561048857600080fd5b91908080601f016020809104026020016040519081016040528093929190818152602001838380828437600081840152601f19601f820116905080830192505050505050509192919290803590602001906401000000008111156104eb57600080fd5b8201836020820111156104fd57600080fd5b8035906020019184600183028401116401000000008311171561051f57600080fd5b91908080601f016020809104026020016040519081016040528093929190818152602001838380828437600081840152601f19601f8201169050808301925050505050505091929192908035906020019064010000000081111561058257600080fd5b82018360208201111561059457600080fd5b803590602001918460018302840111640100000000831117156105b657600080fd5b91908080601f016020809104026020016040519081016040528093929190818152602001838380828437600081840152601f19601f820116905080830192505050505050509192919290803563ffffffff169060200190929190803563ffffffff169060200190929190505050612dfe565b604051808263ffffffff1663ffffffff16815260200191505060405180910390f35b6108416004803603608081101561066057600080fd5b81019080803563ffffffff1690602001909291908035906020019064010000000081111561068d57600080fd5b82018360208201111561069f57600080fd5b803590602001918460018302840111640100000000831117156106c157600080fd5b91908080601f016020809104026020016040519081016040528093929190818152602001838380828437600081840152601f19601f8201169050808301925050505050505091929192908035906020019064010000000081111561072457600080fd5b82018360208201111561073657600080fd5b8035906020019184600183028401116401000000008311171561075857600080fd5b91908080601f016020809104026020016040519081016040528093929190818152602001838380828437600081840152601f19601f820116905080830192505050505050509192919290803590602001906401000000008111156107bb57600080fd5b8201836020820111156107cd57600080fd5b803590602001918460018302840111640100000000831117156107ef57600080fd5b91908080601f016020809104026020016040519081016040528093929190818152602001838380828437600081840152601f19601f8201169050808301925050505050505091929192905050506131c3565b604051808215151515815260200191505060405180910390f35b61088d6004803603602081101561087157600080fd5b81019080803563ffffffff169060200190929190505050613516565b604051808060200180602001806020018a73ffffffffffffffffffffffffffffffffffffffff1673ffffffffffffffffffffffffffffffffffffffff1681526020018963ffffffff1663ffffffff1681526020018863ffffffff1663ffffffff1681526020018763ffffffff1663ffffffff168152602001806020018060200186810386528f818151815260200191508051906020019080838360005b8381101561094557808201518184015260208101905061092a565b50505050905090810190601f1680156109725780820380516001836020036101000a031916815260200191505b5086810385528e818151815260200191508051906020019080838360005b838110156109ab578082015181840152602081019050610990565b50505050905090810190601f1680156109d85780820380516001836020036101000a031916815260200191505b5086810384528d818151815260200191508051906020019080838360005b83811015610a115780820151818401526020810190506109f6565b50505050905090810190601f168015610a3e5780820380516001836020036101000a031916815260200191505b50868103835288818151815260200191508051906020019080838360005b83811015610a77578082015181840152602081019050610a5c565b50505050905090810190601f168015610aa45780820380516001836020036101000a031916815260200191505b50868103825287818151815260200191508051906020019080838360005b83811015610add578082015181840152602081019050610ac2565b50505050905090810190601f168015610b0a5780820380516001836020036101000a031916815260200191505b509e50505050505050505050505050505060405180910390f35b610b5660048036036020811015610b3a57600080fd5b81019080803563ffffffff1690602001909291905050506139a8565b604051808060200180602001806020018573ffffffffffffffffffffffffffffffffffffffff1673ffffffffffffffffffffffffffffffffffffffff168152602001848103845288818151815260200191508051906020019080838360005b83811015610bd0578082015181840152602081019050610bb5565b50505050905090810190601f168015610bfd5780820380516001836020036101000a031916815260200191505b50848103835287818151815260200191508051906020019080838360005b83811015610c36578082015181840152602081019050610c1b565b50505050905090810190601f168015610c635780820380516001836020036101000a031916815260200191505b50848103825286818151815260200191508051906020019080838360005b83811015610c9c578082015181840152602081019050610c81565b50505050905090810190601f168015610cc95780820380516001836020036101000a031916815260200191505b5097505050505050505060405180910390f35b610d0e60048036036020811015610cf257600080fd5b81019080803563ffffffff169060200190929190505050613bc0565b604051808563ffffffff1663ffffffff1681526020018463ffffffff1663ffffffff1681526020018363ffffffff1663ffffffff1681526020018273ffffffffffffffffffffffffffffffffffffffff1673ffffffffffffffffffffffffffffffffffffffff16815260200194505050505060405180910390f35b610d91613c40565b604051808263ffffffff1663ffffffff16815260200191505060405180910390f35b610de560048036036020811015610dc957600080fd5b81019080803563ffffffff169060200190929190505050613c56565b604051808060200180602001806020018a73ffffffffffffffffffffffffffffffffffffffff1673ffffffffffffffffffffffffffffffffffffffff1681526020018963ffffffff1663ffffffff1681526020018863ffffffff1663ffffffff1681526020018763ffffffff1663ffffffff168152602001806020018060200186810386528f818151815260200191508051906020019080838360005b83811015610e9d578082015181840152602081019050610e82565b50505050905090810190601f168015610eca5780820380516001836020036101000a031916815260200191505b5086810385528e818151815260200191508051906020019080838360005b83811015610f03578082015181840152602081019050610ee8565b50505050905090810190601f168015610f305780820380516001836020036101000a031916815260200191505b5086810384528d818151815260200191508051906020019080838360005b83811015610f69578082015181840152602081019050610f4e565b50505050905090810190601f168015610f965780820380516001836020036101000a031916815260200191505b50868103835288818151815260200191508051906020019080838360005b83811015610fcf578082015181840152602081019050610fb4565b50505050905090810190601f168015610ffc5780820380516001836020036101000a031916815260200191505b50868103825287818151815260200191508051906020019080838360005b8381101561103557808201518184015260208101905061101a565b50505050905090810190601f1680156110625780820380516001836020036101000a031916815260200191505b509e50505050505050505050505050505060405180910390f35b6110ae6004803603602081101561109257600080fd5b81019080803563ffffffff169060200190929190505050613fec565b6040518080602001828103825283818151815260200191508051906020019060200280838360005b838110156110f15780820151818401526020810190506110d6565b505050509050019250505060405180910390f35b6111376004803603602081101561111b57600080fd5b81019080803563ffffffff16906020019092919050505061408f565b604051808563ffffffff1663ffffffff1681526020018463ffffffff1663ffffffff1681526020018373ffffffffffffffffffffffffffffffffffffffff1673ffffffffffffffffffffffffffffffffffffffff1681526020018263ffffffff1663ffffffff16815260200194505050505060405180910390f35b6113b9600480360360808110156111c857600080fd5b81019080803590602001906401000000008111156111e557600080fd5b8201836020820111156111f757600080fd5b8035906020019184600183028401116401000000008311171561121957600080fd5b91908080601f016020809104026020016040519081016040528093929190818152602001838380828437600081840152601f19601f8201169050808301925050505050505091929192908035906020019064010000000081111561127c57600080fd5b82018360208201111561128e57600080fd5b803590602001918460018302840111640100000000831117156112b057600080fd5b91908080601f016020809104026020016040519081016040528093929190818152602001838380828437600081840152601f19601f820116905080830192505050505050509192919290803573ffffffffffffffffffffffffffffffffffffffff1690602001909291908035906020019064010000000081111561133357600080fd5b82018360208201111561134557600080fd5b8035906020019184600183028401116401000000008311171561136757600080fd5b91908080601f016020809104026020016040519081016040528093929190818152602001838380828437600081840152601f19601f8201169050808301925050505050505091929192905050506141b5565b604051808263ffffffff1663ffffffff16815260200191505060405180910390f35b611417600480360360408110156113f157600080fd5b81019080803563ffffffff16906020019092919080359060200190929190505050614306565b604051808263ffffffff1663ffffffff16815260200191505060405180910390f35b61144161434c565b604051808263ffffffff1663ffffffff16815260200191505060405180910390f35b60405180807f54656368496e746572766965776572310000000000000000000000000000000081525060100190506040518091039020600260008563ffffffff1663ffffffff16815260200190815260200160002060020160405160200180828054600181600116156101000203166002900480156115195780601f106114f7576101008083540402835291820191611519565b820191906000526020600020905b815481529060010190602001808311611505575b505091505060405160208183030381529060405280519060200120141561164b5782604051602001808263ffffffff1663ffffffff1660e01b815260040191505060405160208183030381529060405280519060200120600160008463ffffffff1663ffffffff16815260200190815260200160002060030160009054906101000a900473ffffffffffffffffffffffffffffffffffffffff16604051602001808273ffffffffffffffffffffffffffffffffffffffff1673ffffffffffffffffffffffffffffffffffffffff1660601b81526014019150506040516020818303038152906040528051906020012014156116465780600160008463ffffffff1663ffffffff1681526020019081526020016000206004019080519060200190611644929190614362565b505b611830565b60405180807f54656368496e746572766965776572320000000000000000000000000000000081525060100190506040518091039020600260008563ffffffff1663ffffffff16815260200190815260200160002060020160405160200180828054600181600116156101000203166002900480156117015780601f106116df576101008083540402835291820191611701565b820191906000526020600020905b8154815290600101906020018083116116ed575b505091505060405160208183030381529060405280519060200120141561182f5782604051602001808263ffffffff1663ffffffff1660e01b815260040191505060405160208183030381529060405280519060200120600160008463ffffffff1663ffffffff16815260200190815260200160002060030160009054906101000a900473ffffffffffffffffffffffffffffffffffffffff16604051602001808273ffffffffffffffffffffffffffffffffffffffff1673ffffffffffffffffffffffffffffffffffffffff1660601b815260140191505060405160208183030381529060405280519060200120141561182e5780600160008463ffffffff1663ffffffff168152602001908152602001600020600501908051906020019061182c929190614362565b505b5b5b505050565b60405180807f54656368496e746572766965776572310000000000000000000000000000000081525060100190506040518091039020600260008563ffffffff1663ffffffff16815260200190815260200160002060020160405160200180828054600181600116156101000203166002900480156118eb5780601f106118c95761010080835404028352918201916118eb565b820191906000526020600020905b8154815290600101906020018083116118d7575b50509150506040516020818303038152906040528051906020012014806119e0575060405180807f54656368496e746572766965776572320000000000000000000000000000000081525060100190506040518091039020600260008563ffffffff1663ffffffff16815260200190815260200160002060020160405160200180828054600181600116156101000203166002900480156119c35780601f106119a15761010080835404028352918201916119c3565b820191906000526020600020905b8154815290600101906020018083116119af575b505091505060405160208183030381529060405280519060200120145b15611b115782604051602001808263ffffffff1663ffffffff1660e01b815260040191505060405160208183030381529060405280519060200120600160008463ffffffff1663ffffffff16815260200190815260200160002060030160009054906101000a900473ffffffffffffffffffffffffffffffffffffffff16604051602001808273ffffffffffffffffffffffffffffffffffffffff1673ffffffffffffffffffffffffffffffffffffffff1660601b8152601401915050604051602081830303815290604052805190602001201415611b105780600160008463ffffffff1663ffffffff16815260200190815260200160002060030160188282829054906101000a900463ffffffff160192506101000a81548163ffffffff021916908363ffffffff1602179055505b5b505050565b600081600160008263ffffffff1663ffffffff16815260200190815260200160002060030160009054906101000a900473ffffffffffffffffffffffffffffffffffffffff1673ffffffffffffffffffffffffffffffffffffffff163373ffffffffffffffffffffffffffffffffffffffff1614611bd7576040517f08c379a0000000000000000000000000000000000000000000000000000000008152600401808060200182810382526000815260200160200191505060405180910390fd5b611bdf6143e2565b600260008763ffffffff1663ffffffff168152602001908152602001600020604051806080016040529081600082018054600181600116156101000203166002900480601f016020809104026020016040519081016040528092919081815260200182805460018160011615610100020316600290048015611ca25780601f10611c7757610100808354040283529160200191611ca2565b820191906000526020600020905b815481529060010190602001808311611c8557829003601f168201915b50505050508152602001600182018054600181600116156101000203166002900480601f016020809104026020016040519081016040528092919081815260200182805460018160011615610100020316600290048015611d445780601f10611d1957610100808354040283529160200191611d44565b820191906000526020600020905b815481529060010190602001808311611d2757829003601f168201915b50505050508152602001600282018054600181600116156101000203166002900480601f016020809104026020016040519081016040528092919081815260200182805460018160011615610100020316600290048015611de65780601f10611dbb57610100808354040283529160200191611de6565b820191906000526020600020905b815481529060010190602001808311611dc957829003601f168201915b505050505081526020016003820160009054906101000a900473ffffffffffffffffffffffffffffffffffffffff1673ffffffffffffffffffffffffffffffffffffffff1673ffffffffffffffffffffffffffffffffffffffff16815250509050611e4f6143e2565b600260008763ffffffff1663ffffffff168152602001908152602001600020604051806080016040529081600082018054600181600116156101000203166002900480601f016020809104026020016040519081016040528092919081815260200182805460018160011615610100020316600290048015611f125780601f10611ee757610100808354040283529160200191611f12565b820191906000526020600020905b815481529060010190602001808311611ef557829003601f168201915b50505050508152602001600182018054600181600116156101000203166002900480601f016020809104026020016040519081016040528092919081815260200182805460018160011615610100020316600290048015611fb45780601f10611f8957610100808354040283529160200191611fb4565b820191906000526020600020905b815481529060010190602001808311611f9757829003601f168201915b50505050508152602001600282018054600181600116156101000203166002900480601f0160208091040260200160405190810160405280929190818152602001828054600181600116156101000203166002900480156120565780601f1061202b57610100808354040283529160200191612056565b820191906000526020600020905b81548152906001019060200180831161203957829003601f168201915b505050505081526020016003820160009054906101000a900473ffffffffffffffffffffffffffffffffffffffff1673ffffffffffffffffffffffffffffffffffffffff1673ffffffffffffffffffffffffffffffffffffffff16815250509050600080600881819054906101000a900463ffffffff168092919060010191906101000a81548163ffffffff021916908363ffffffff160217905550905060405180807f48520000000000000000000000000000000000000000000000000000000000008152506002019050604051809103902083604001516040516020018082805190602001908083835b602083106121655780518252602082019150602081019050602083039250612142565b6001836020036101000a03801982511681845116808217855250505050505090500191505060405160208183030381529060405280519060200120148015612256575060405180807f54656368496e74657276696577657231000000000000000000000000000000008152506010019050604051809103902082604001516040516020018082805190602001908083835b6020831061221957805182526020820191506020810190506020830392506121f6565b6001836020036101000a03801982511681845116808217855250505050505090500191505060405160208183030381529060405280519060200120145b156124a55785600360008363ffffffff1663ffffffff16815260200190815260200160002060000160006101000a81548163ffffffff021916908363ffffffff1602179055508160600151600360008363ffffffff1663ffffffff168152602001908152602001600020600001600c6101000a81548173ffffffffffffffffffffffffffffffffffffffff021916908373ffffffffffffffffffffffffffffffffffffffff16021790555086600360008363ffffffff1663ffffffff16815260200190815260200160002060000160046101000a81548163ffffffff021916908363ffffffff16021790555042600360008363ffffffff1663ffffffff16815260200190815260200160002060000160086101000a81548163ffffffff021916908363ffffffff1602179055508160600151600160008863ffffffff1663ffffffff16815260200190815260200160002060030160006101000a81548173ffffffffffffffffffffffffffffffffffffffff021916908373ffffffffffffffffffffffffffffffffffffffff160217905550600460008763ffffffff1663ffffffff16815260200190815260200160002081908060018154018082558091505090600182039060005260206000209060089182820401919006600402909192909190916101000a81548163ffffffff021916908363ffffffff160217905550507fa5470ac012c6e9dc500e62b1d3de0de58db49b3ab7cfebbfb126d9abd854199b86604051808263ffffffff1663ffffffff16815260200191505060405180910390a160019450505050612c0f565b60405180807f54656368496e74657276696577657231000000000000000000000000000000008152506010019050604051809103902083604001516040516020018082805190602001908083835b6020831061251657805182526020820191506020810190506020830392506124f3565b6001836020036101000a03801982511681845116808217855250505050505090500191505060405160208183030381529060405280519060200120148015612607575060405180807f54656368496e74657276696577657232000000000000000000000000000000008152506010019050604051809103902082604001516040516020018082805190602001908083835b602083106125ca57805182526020820191506020810190506020830392506125a7565b6001836020036101000a03801982511681845116808217855250505050505090500191505060405160208183030381529060405280519060200120145b156128565785600360008363ffffffff1663ffffffff16815260200190815260200160002060000160006101000a81548163ffffffff021916908363ffffffff1602179055508160600151600360008363ffffffff1663ffffffff168152602001908152602001600020600001600c6101000a81548173ffffffffffffffffffffffffffffffffffffffff021916908373ffffffffffffffffffffffffffffffffffffffff16021790555086600360008363ffffffff1663ffffffff16815260200190815260200160002060000160046101000a81548163ffffffff021916908363ffffffff16021790555042600360008363ffffffff1663ffffffff16815260200190815260200160002060000160086101000a81548163ffffffff021916908363ffffffff1602179055508160600151600160008863ffffffff1663ffffffff16815260200190815260200160002060030160006101000a81548173ffffffffffffffffffffffffffffffffffffffff021916908373ffffffffffffffffffffffffffffffffffffffff160217905550600460008763ffffffff1663ffffffff16815260200190815260200160002081908060018154018082558091505090600182039060005260206000209060089182820401919006600402909192909190916101000a81548163ffffffff021916908363ffffffff160217905550507fa5470ac012c6e9dc500e62b1d3de0de58db49b3ab7cfebbfb126d9abd854199b86604051808263ffffffff1663ffffffff16815260200191505060405180910390a160019450505050612c0f565b60405180807f54656368496e74657276696577657232000000000000000000000000000000008152506010019050604051809103902083604001516040516020018082805190602001908083835b602083106128c757805182526020820191506020810190506020830392506128a4565b6001836020036101000a038019825116818451168082178552505050505050905001915050604051602081830303815290604052805190602001201480156129b8575060405180807f48520000000000000000000000000000000000000000000000000000000000008152506002019050604051809103902082604001516040516020018082805190602001908083835b6020831061297b5780518252602082019150602081019050602083039250612958565b6001836020036101000a03801982511681845116808217855250505050505090500191505060405160208183030381529060405280519060200120145b15612c075785600360008363ffffffff1663ffffffff16815260200190815260200160002060000160006101000a81548163ffffffff021916908363ffffffff1602179055508160600151600360008363ffffffff1663ffffffff168152602001908152602001600020600001600c6101000a81548173ffffffffffffffffffffffffffffffffffffffff021916908373ffffffffffffffffffffffffffffffffffffffff16021790555086600360008363ffffffff1663ffffffff16815260200190815260200160002060000160046101000a81548163ffffffff021916908363ffffffff16021790555042600360008363ffffffff1663ffffffff16815260200190815260200160002060000160086101000a81548163ffffffff021916908363ffffffff1602179055508160600151600160008863ffffffff1663ffffffff16815260200190815260200160002060030160006101000a81548173ffffffffffffffffffffffffffffffffffffffff021916908373ffffffffffffffffffffffffffffffffffffffff160217905550600460008763ffffffff1663ffffffff16815260200190815260200160002081908060018154018082558091505090600182039060005260206000209060089182820401919006600402909192909190916101000a81548163ffffffff021916908363ffffffff160217905550507fa5470ac012c6e9dc500e62b1d3de0de58db49b3ab7cfebbfb126d9abd854199b86604051808263ffffffff1663ffffffff16815260200191505060405180910390a160019450505050612c0f565b600094505050505b509392505050565b6000809054906101000a900463ffffffff1681565b606060006060600260008563ffffffff1663ffffffff168152602001908152602001600020600001600260008663ffffffff1663ffffffff16815260200190815260200160002060030160009054906101000a900473ffffffffffffffffffffffffffffffffffffffff16600260008763ffffffff1663ffffffff168152602001908152602001600020600201828054600181600116156101000203166002900480601f016020809104026020016040519081016040528092919081815260200182805460018160011615610100020316600290048015612d4e5780601f10612d2357610100808354040283529160200191612d4e565b820191906000526020600020905b815481529060010190602001808311612d3157829003601f168201915b50505050509250808054600181600116156101000203166002900480601f016020809104026020016040519081016040528092919081815260200182805460018160011615610100020316600290048015612dea5780601f10612dbf57610100808354040283529160200191612dea565b820191906000526020600020905b815481529060010190602001808311612dcd57829003601f168201915b505050505090509250925092509193909250565b600060405180807f485200000000000000000000000000000000000000000000000000000000000081525060020190506040518091039020600260008563ffffffff1663ffffffff1681526020019081526020016000206002016040516020018082805460018160011615610100020316600290048015612eb65780601f10612e94576101008083540402835291820191612eb6565b820191906000526020600020905b815481529060010190602001808311612ea2575b50509150506040516020818303038152906040528051906020012014156131b557600080600081819054906101000a900463ffffffff168092919060010191906101000a81548163ffffffff021916908363ffffffff160217905550905086600160008363ffffffff1663ffffffff1681526020019081526020016000206000019080519060200190612f4a929190614362565b5085600160008363ffffffff1663ffffffff1681526020019081526020016000206001019080519060200190612f81929190614362565b5084600160008363ffffffff1663ffffffff1681526020019081526020016000206002019080519060200190612fb8929190614362565b50600260008563ffffffff1663ffffffff16815260200190815260200160002060030160009054906101000a900473ffffffffffffffffffffffffffffffffffffffff16600160008363ffffffff1663ffffffff16815260200190815260200160002060030160006101000a81548173ffffffffffffffffffffffffffffffffffffffff021916908373ffffffffffffffffffffffffffffffffffffffff16021790555082600160008363ffffffff1663ffffffff16815260200190815260200160002060030160146101000a81548163ffffffff021916908363ffffffff1602179055506000600160008363ffffffff1663ffffffff16815260200190815260200160002060030160186101000a81548163ffffffff021916908363ffffffff16021790555042600160008363ffffffff1663ffffffff168152602001908152602001600020600301601c6101000a81548163ffffffff021916908363ffffffff16021790555060405180602001604052806000815250600160008363ffffffff1663ffffffff1681526020019081526020016000206004019080519060200190613165929190614362565b5060405180602001604052806000815250600160008363ffffffff1663ffffffff16815260200190815260200160002060050190805190602001906131ab929190614362565b50809150506131ba565b600090505b95945050505050565b6000816040516020018082805190602001908083835b602083106131fc57805182526020820191506020810190506020830392506131d9565b6001836020036101000a03801982511681845116808217855250505050505090500191505060405160208183030381529060405280519060200120600260008763ffffffff1663ffffffff16815260200190815260200160002060020160405160200180828054600181600116156101000203166002900480156132b75780601f106132955761010080835404028352918201916132b7565b820191906000526020600020905b8154815290600101906020018083116132a3575b505091505060405160208183030381529060405280519060200120141561350957836040516020018082805190602001908083835b6020831061330f57805182526020820191506020810190506020830392506132ec565b6001836020036101000a03801982511681845116808217855250505050505090500191505060405160208183030381529060405280519060200120600260008763ffffffff1663ffffffff16815260200190815260200160002060000160405160200180828054600181600116156101000203166002900480156133ca5780601f106133a85761010080835404028352918201916133ca565b820191906000526020600020905b8154815290600101906020018083116133b6575b505091505060405160208183030381529060405280519060200120141561350857826040516020018082805190602001908083835b6020831061342257805182526020820191506020810190506020830392506133ff565b6001836020036101000a03801982511681845116808217855250505050505090500191505060405160208183030381529060405280519060200120600260008763ffffffff1663ffffffff16815260200190815260200160002060010160405160200180828054600181600116156101000203166002900480156134dd5780601f106134bb5761010080835404028352918201916134dd565b820191906000526020600020905b8154815290600101906020018083116134c9575b5050915050604051602081830303815290604052805190602001201415613507576001905061350e565b5b5b600090505b949350505050565b606080606060008060008060608061352c614420565b600160008c63ffffffff1663ffffffff16815260200190815260200160002060405180610120016040529081600082018054600181600116156101000203166002900480601f0160208091040260200160405190810160405280929190818152602001828054600181600116156101000203166002900480156135f05780601f106135c5576101008083540402835291602001916135f0565b820191906000526020600020905b8154815290600101906020018083116135d357829003601f168201915b50505050508152602001600182018054600181600116156101000203166002900480601f0160208091040260200160405190810160405280929190818152602001828054600181600116156101000203166002900480156136925780601f1061366757610100808354040283529160200191613692565b820191906000526020600020905b81548152906001019060200180831161367557829003601f168201915b50505050508152602001600282018054600181600116156101000203166002900480601f0160208091040260200160405190810160405280929190818152602001828054600181600116156101000203166002900480156137345780601f1061370957610100808354040283529160200191613734565b820191906000526020600020905b81548152906001019060200180831161371757829003601f168201915b505050505081526020016003820160009054906101000a900473ffffffffffffffffffffffffffffffffffffffff1673ffffffffffffffffffffffffffffffffffffffff1673ffffffffffffffffffffffffffffffffffffffff1681526020016003820160149054906101000a900463ffffffff1663ffffffff1663ffffffff1681526020016003820160189054906101000a900463ffffffff1663ffffffff1663ffffffff16815260200160038201601c9054906101000a900463ffffffff1663ffffffff1663ffffffff168152602001600482018054600181600116156101000203166002900480601f01602080910402602001604051908101604052809291908181526020018280546001816001161561010002031660029004801561389e5780601f106138735761010080835404028352916020019161389e565b820191906000526020600020905b81548152906001019060200180831161388157829003601f168201915b50505050508152602001600582018054600181600116156101000203166002900480601f0160208091040260200160405190810160405280929190818152602001828054600181600116156101000203166002900480156139405780601f1061391557610100808354040283529160200191613940565b820191906000526020600020905b81548152906001019060200180831161392357829003601f168201915b5050505050815250509050806000015181602001518260400151836060015184608001518560a001518660c001518760e00151886101000151889850879750869650819150809050995099509950995099509950995099509950509193959799909294969850565b6002602052806000526040600020600091509050806000018054600181600116156101000203166002900480601f016020809104026020016040519081016040528092919081815260200182805460018160011615610100020316600290048015613a545780601f10613a2957610100808354040283529160200191613a54565b820191906000526020600020905b815481529060010190602001808311613a3757829003601f168201915b505050505090806001018054600181600116156101000203166002900480601f016020809104026020016040519081016040528092919081815260200182805460018160011615610100020316600290048015613af25780601f10613ac757610100808354040283529160200191613af2565b820191906000526020600020905b815481529060010190602001808311613ad557829003601f168201915b505050505090806002018054600181600116156101000203166002900480601f016020809104026020016040519081016040528092919081815260200182805460018160011615610100020316600290048015613b905780601f10613b6557610100808354040283529160200191613b90565b820191906000526020600020905b815481529060010190602001808311613b7357829003601f168201915b5050505050908060030160009054906101000a900473ffffffffffffffffffffffffffffffffffffffff16905084565b60036020528060005260406000206000915090508060000160009054906101000a900463ffffffff16908060000160049054906101000a900463ffffffff16908060000160089054906101000a900463ffffffff169080600001600c9054906101000a900473ffffffffffffffffffffffffffffffffffffffff16905084565b600060089054906101000a900463ffffffff1681565b6001602052806000526040600020600091509050806000018054600181600116156101000203166002900480601f016020809104026020016040519081016040528092919081815260200182805460018160011615610100020316600290048015613d025780601f10613cd757610100808354040283529160200191613d02565b820191906000526020600020905b815481529060010190602001808311613ce557829003601f168201915b505050505090806001018054600181600116156101000203166002900480601f016020809104026020016040519081016040528092919081815260200182805460018160011615610100020316600290048015613da05780601f10613d7557610100808354040283529160200191613da0565b820191906000526020600020905b815481529060010190602001808311613d8357829003601f168201915b505050505090806002018054600181600116156101000203166002900480601f016020809104026020016040519081016040528092919081815260200182805460018160011615610100020316600290048015613e3e5780601f10613e1357610100808354040283529160200191613e3e565b820191906000526020600020905b815481529060010190602001808311613e2157829003601f168201915b5050505050908060030160009054906101000a900473ffffffffffffffffffffffffffffffffffffffff16908060030160149054906101000a900463ffffffff16908060030160189054906101000a900463ffffffff169080600301601c9054906101000a900463ffffffff1690806004018054600181600116156101000203166002900480601f016020809104026020016040519081016040528092919081815260200182805460018160011615610100020316600290048015613f445780601f10613f1957610100808354040283529160200191613f44565b820191906000526020600020905b815481529060010190602001808311613f2757829003601f168201915b505050505090806005018054600181600116156101000203166002900480601f016020809104026020016040519081016040528092919081815260200182805460018160011615610100020316600290048015613fe25780601f10613fb757610100808354040283529160200191613fe2565b820191906000526020600020905b815481529060010190602001808311613fc557829003601f168201915b5050505050905089565b6060600460008363ffffffff1663ffffffff16815260200190815260200160002080548060200260200160405190810160405280929190818152602001828054801561408357602002820191906000526020600020906000905b82829054906101000a900463ffffffff1663ffffffff16815260200190600401906020826003010492830192600103820291508084116140465790505b50505050509050919050565b60008060008061409d614494565b600360008763ffffffff1663ffffffff1681526020019081526020016000206040518060800160405290816000820160009054906101000a900463ffffffff1663ffffffff1663ffffffff1681526020016000820160049054906101000a900463ffffffff1663ffffffff1663ffffffff1681526020016000820160089054906101000a900463ffffffff1663ffffffff1663ffffffff16815260200160008201600c9054906101000a900473ffffffffffffffffffffffffffffffffffffffff1673ffffffffffffffffffffffffffffffffffffffff1673ffffffffffffffffffffffffffffffffffffffff1681525050905080600001518160200151826060015183604001519450945094509450509193509193565b6000806000600481819054906101000a900463ffffffff168092919060010191906101000a81548163ffffffff021916908363ffffffff160217905550905085600260008363ffffffff1663ffffffff168152602001908152602001600020600001908051906020019061422a929190614362565b5084600260008363ffffffff1663ffffffff1681526020019081526020016000206001019080519060200190614261929190614362565b5083600260008363ffffffff1663ffffffff16815260200190815260200160002060030160006101000a81548173ffffffffffffffffffffffffffffffffffffffff021916908373ffffffffffffffffffffffffffffffffffffffff16021790555082600260008363ffffffff1663ffffffff16815260200190815260200160002060020190805190602001906142f9929190614362565b5080915050949350505050565b6004602052816000526040600020818154811061431f57fe5b9060005260206000209060089182820401919006600402915091509054906101000a900463ffffffff1681565b600060049054906101000a900463ffffffff1681565b828054600181600116156101000203166002900490600052602060002090601f016020900481019282601f106143a357805160ff19168380011785556143d1565b828001600101855582156143d1579182015b828111156143d05782518255916020019190600101906143b5565b5b5090506143de91906144e4565b5090565b6040518060800160405280606081526020016060815260200160608152602001600073ffffffffffffffffffffffffffffffffffffffff1681525090565b604051806101200160405280606081526020016060815260200160608152602001600073ffffffffffffffffffffffffffffffffffffffff168152602001600063ffffffff168152602001600063ffffffff168152602001600063ffffffff16815260200160608152602001606081525090565b6040518060800160405280600063ffffffff168152602001600063ffffffff168152602001600063ffffffff168152602001600073ffffffffffffffffffffffffffffffffffffffff1681525090565b61450691905b808211156145025760008160009055506001016144ea565b5090565b9056fea265627a7a72315820ed04d942927e6d41216ffe2e88f3e7dc5cb69d908e380d8316f955c43a51967d64736f6c63430005100032",
  "source": "pragma solidity >=0.5.16 <0.9.0;\r\n\r\n//Smart contract for whole HR Hiring process in the IT company\r\ncontract HR_management {\r\n    \r\n    uint32 public employee_id = 0;                          // Employee ID\r\n    uint32 public participant_id = 0;                       // Participant ID as Technical people\r\n    uint32 public owner_id = 0;                             // Ownership ID\r\n\r\n    struct employee {\r\n        string employeeNumber;\r\n        string employeeName;\r\n        string employeeDesignation;\r\n        address employeeOwner;\r\n        uint32 currentSalary;\r\n        uint32 employeeScore;\r\n        uint32 joiningTimeStamp;\r\n        string emp_feedback_tech1;\r\n        string emp_feedback_tech2;\r\n    }\r\n\r\n    mapping(uint32 => employee) public employees;\r\n    struct participant {\r\n        string userName;\r\n        string password;\r\n        string participantType;                             //Technical Interviewer1, Technical Interviewer2, HR\r\n        address participantAddress;\r\n    }\r\n    \r\n    mapping(uint32 => participant) public participants;\r\n    struct ownership {\r\n        uint32 employeeId;\r\n        uint32 ownerId;\r\n        uint32 trxTimeStamp;\r\n        address employeeOwner;\r\n    }\r\n    \r\n    mapping(uint32 => ownership) public ownerships;             // ownerships by ownership ID (owner_id)\r\n    mapping(uint32 => uint32[]) public employeeTrack;           // ownerships by Employee ID (employee_id) / Movement track for an Employee\r\n\r\n    event TransferOwnership(uint32 employeeId);\r\n\r\n    //Function to add an Participant in the Employee Hiring management System.\r\n    function addParticipant(string memory _name, string memory _pass, address _pAdd, string memory _pType) public returns (uint32) {\r\n        uint32 userId = participant_id++;\r\n        participants[userId].userName = _name;\r\n        participants[userId].password = _pass;\r\n        participants[userId].participantAddress = _pAdd;\r\n        participants[userId].participantType = _pType;\r\n        return userId;\r\n    }\r\n    \r\n    //Function to get the Participant's details from the Employee Hiring management System.\r\n    function getParticipant(uint32 _participant_id) public view returns (string memory,address,string memory) {\r\n        return (participants[_participant_id].userName,\r\n        participants[_participant_id].participantAddress,\r\n        participants[_participant_id].participantType);\r\n    }\r\n\r\n    //Function to add a New Employee in the System\r\n    //This process can only be done by the HR\r\n    function addEmployee(string memory _employeeNumber,\r\n    string memory _employeeName,\r\n    string memory _employeeDesignation,\r\n    uint32 _ownerId,\r\n    uint32 _currentSalary) public returns (uint32) {\r\n        if(keccak256(abi.encodePacked(participants[_ownerId].participantType)) == keccak256(\"HR\")) {\r\n        uint32 employeeId = employee_id++;\r\n        employees[employeeId].employeeNumber = _employeeNumber;\r\n        employees[employeeId].employeeName = _employeeName;\r\n        employees[employeeId].employeeDesignation = _employeeDesignation;\r\n        employees[employeeId].employeeOwner = participants[_ownerId].participantAddress;\r\n        employees[employeeId].currentSalary = _currentSalary;\r\n        employees[employeeId].employeeScore = 0;\r\n        employees[employeeId].joiningTimeStamp = uint32(block.timestamp);\r\n        employees[employeeId].emp_feedback_tech1 = '';\r\n        employees[employeeId].emp_feedback_tech2 = '';\r\n        return employeeId;\r\n        }\r\n        return 0;\r\n    }\r\n\r\n    //Function to update Employee Score in the System\r\n    //This process updates the final score in the same variable and adds the score the both the participants\r\n    //Both of the Technical Interviewers can give score out of 10 each\r\n    function updateEmpScore(uint32 _ownerId, uint32 _employeeId, uint32 _employeeScore) public{\r\n        if(keccak256(abi.encodePacked(participants[_ownerId].participantType)) == keccak256(\"TechInterviewer1\") || \r\n        keccak256(abi.encodePacked(participants[_ownerId].participantType)) == keccak256(\"TechInterviewer2\")) {\r\n            if(keccak256(abi.encodePacked(employees[_employeeId].employeeOwner)) == keccak256(abi.encodePacked(_ownerId))){\r\n                employees[_employeeId].employeeScore += _employeeScore;\r\n            }\r\n        }\r\n    }\r\n\r\n    //Function to update the Employee Feedback on the basis of Interview in the System\r\n    //This process can only be done by the Technical Interviewers (TechInterviewer1, TechInterviewer2)\r\n    function updateFeedback(uint32 _ownerId, uint32 _employeeId, string memory _emp_feedback) public{\r\n        if(keccak256(abi.encodePacked(participants[_ownerId].participantType)) == keccak256(\"TechInterviewer1\")) {\r\n            if(keccak256(abi.encodePacked(employees[_employeeId].employeeOwner)) == keccak256(abi.encodePacked(_ownerId)))\r\n            {\r\n                employees[_employeeId].emp_feedback_tech1 = _emp_feedback;\r\n            }\r\n        }\r\n        else if(keccak256(abi.encodePacked(participants[_ownerId].participantType)) == keccak256(\"TechInterviewer2\")){\r\n            if(keccak256(abi.encodePacked(employees[_employeeId].employeeOwner)) == keccak256(abi.encodePacked(_ownerId))){\r\n                employees[_employeeId].emp_feedback_tech2 = _emp_feedback;\r\n            }\r\n        }\r\n    }\r\n\r\n    modifier onlyOwner(uint32 _employeeId) {\r\n        require(msg.sender == employees[_employeeId].employeeOwner,\"\");\r\n        _;\r\n    }\r\n\r\n    //Function to get the Employee's Data from the System\r\n    function getEmployee(uint32 _employeeId) public view returns (string memory,string memory,string memory,address,uint32,uint32,uint32,string memory,string memory){\r\n    employee memory e = employees[_employeeId];\r\n        return (e.employeeNumber,\r\n        e.employeeName,\r\n        e.employeeDesignation,\r\n        e.employeeOwner,\r\n        e.currentSalary,\r\n        e.employeeScore,\r\n        e.joiningTimeStamp,\r\n        e.emp_feedback_tech1,\r\n        e.emp_feedback_tech2);\r\n    }\r\n    \r\n    //Function to transfer Employee along the whole process\r\n    /**\r\n    HR can transfer the Employee to TechInterviewer1\r\n    TechInterviewer1 can transfer the Employee to TechInterviewer2\r\n    TechInterviewer2 can transfer the Employee back to HR\r\n    */\r\n    function newOwner(uint32 _user1Id,uint32 _user2Id, uint32 _empId) onlyOwner(_empId) public returns (bool) {\r\n        participant memory p1 = participants[_user1Id];\r\n        participant memory p2 = participants[_user2Id];\r\n        uint32 ownership_id = owner_id++;\r\n        \r\n        if(keccak256(abi.encodePacked(p1.participantType)) == keccak256(\"HR\")&& keccak256(abi.encodePacked(p2.participantType))==keccak256(\"TechInterviewer1\")){\r\n            ownerships[ownership_id].employeeId = _empId;\r\n            ownerships[ownership_id].employeeOwner = p2.participantAddress;\r\n            ownerships[ownership_id].ownerId = _user2Id;\r\n            ownerships[ownership_id].trxTimeStamp = uint32(block.timestamp);\r\n            employees[_empId].employeeOwner = p2.participantAddress;\r\n            employeeTrack[_empId].push(ownership_id);\r\n            emit TransferOwnership(_empId);\r\n            return (true);\r\n        }\r\n        \r\n        else if(keccak256(abi.encodePacked(p1.participantType)) == keccak256(\"TechInterviewer1\") && keccak256(abi.encodePacked(p2.participantType))==keccak256(\"TechInterviewer2\")){\r\n            ownerships[ownership_id].employeeId = _empId;\r\n            ownerships[ownership_id].employeeOwner = p2.participantAddress;\r\n            ownerships[ownership_id].ownerId = _user2Id;\r\n            ownerships[ownership_id].trxTimeStamp = uint32(block.timestamp);\r\n            employees[_empId].employeeOwner = p2.participantAddress;\r\n            employeeTrack[_empId].push(ownership_id);\r\n            emit TransferOwnership(_empId);\r\n            return (true);\r\n        }\r\n\r\n        else if(keccak256(abi.encodePacked(p1.participantType)) == keccak256(\"TechInterviewer2\") && keccak256(abi.encodePacked(p2.participantType))==keccak256(\"HR\")){\r\n            ownerships[ownership_id].employeeId = _empId;\r\n            ownerships[ownership_id].employeeOwner = p2.participantAddress;\r\n            ownerships[ownership_id].ownerId = _user2Id;\r\n            ownerships[ownership_id].trxTimeStamp = uint32(block.timestamp);\r\n            employees[_empId].employeeOwner = p2.participantAddress;\r\n            employeeTrack[_empId].push(ownership_id);\r\n            emit TransferOwnership(_empId);\r\n            return (true);\r\n        }\r\n        return (false);\r\n    }\r\n    \r\n    // To Get track of the Employee (i.e where it is in the Blockchain flow currently)\r\n    function getProvenance(uint32 _empId) external view returns (uint32[] memory) {\r\n        return employeeTrack[_empId];\r\n    }\r\n\r\n    //Function to get the Owner details of any Employee\r\n    function getOwnership(uint32 _regId) public view returns (uint32,uint32,address,uint32) {\r\n        \r\n        ownership memory r = ownerships[_regId];\r\n        return (r.employeeId,r.ownerId,r.employeeOwner,r.trxTimeStamp);\r\n    }\r\n    \r\n    //Function to Authenticate the Participant with all details\r\n    function authenticateParticipant(uint32 _uid,\r\n    string memory _uname,\r\n    string memory _pass,\r\n    string memory _utype) public view returns (bool){\r\n        if(keccak256(abi.encodePacked(participants[_uid].participantType)) == keccak256(abi.encodePacked(_utype))) {\r\n            if(keccak256(abi.encodePacked(participants[_uid].userName)) == keccak256(abi.encodePacked(_uname))) {\r\n                if(keccak256(abi.encodePacked(participants[_uid].password)) == keccak256(abi.encodePacked(_pass))) {\r\n                    return (true);\r\n                }\r\n            }\r\n        }\r\n        return (false);\r\n    }\r\n\r\n}",
  "sourcePath": "D:\\blockchain\\New folder\\Blockchain Project\\contracts\\HR_management.sol",
  "compiler": {
    "name": "solc",
    "version": "0.5.16+commit.9c3226ce.Emscripten.clang"
  },
  "schemaVersion": "3.4.3",
  "updatedAt": "2021-12-18T18:31:27.908Z",
  "networkType": "ethereum",
  "devdoc": {
    "methods": {}
  },
  "userdoc": {
    "methods": {
      "newOwner(uint32,uint32,uint32)": {
        "notice": "HR can transfer the Employee to TechInterviewer1 TechInterviewer1 can transfer the Employee to TechInterviewer2 TechInterviewer2 can transfer the Employee back to HR"
      }
    }
  }
}